{
  "_format": "hh-sol-artifact-1",
  "contractName": "CoreNFT",
  "sourceName": "contracts/NFT.sol",
  "abi": [
    {
      "inputs": [
        {
          "internalType": "string",
          "name": "baseURI_",
          "type": "string"
        }
      ],
      "stateMutability": "nonpayable",
      "type": "constructor"
    },
    {
      "inputs": [],
      "name": "ERC721EnumerableForbiddenBatchMint",
      "type": "error"
    },
    {
      "inputs": [
        {
          "internalType": "address",
          "name": "sender",
          "type": "address"
        },
        {
          "internalType": "uint256",
          "name": "tokenId",
          "type": "uint256"
        },
        {
          "internalType": "address",
          "name": "owner",
          "type": "address"
        }
      ],
      "name": "ERC721IncorrectOwner",
      "type": "error"
    },
    {
      "inputs": [
        {
          "internalType": "address",
          "name": "operator",
          "type": "address"
        },
        {
          "internalType": "uint256",
          "name": "tokenId",
          "type": "uint256"
        }
      ],
      "name": "ERC721InsufficientApproval",
      "type": "error"
    },
    {
      "inputs": [
        {
          "internalType": "address",
          "name": "approver",
          "type": "address"
        }
      ],
      "name": "ERC721InvalidApprover",
      "type": "error"
    },
    {
      "inputs": [
        {
          "internalType": "address",
          "name": "operator",
          "type": "address"
        }
      ],
      "name": "ERC721InvalidOperator",
      "type": "error"
    },
    {
      "inputs": [
        {
          "internalType": "address",
          "name": "owner",
          "type": "address"
        }
      ],
      "name": "ERC721InvalidOwner",
      "type": "error"
    },
    {
      "inputs": [
        {
          "internalType": "address",
          "name": "receiver",
          "type": "address"
        }
      ],
      "name": "ERC721InvalidReceiver",
      "type": "error"
    },
    {
      "inputs": [
        {
          "internalType": "address",
          "name": "sender",
          "type": "address"
        }
      ],
      "name": "ERC721InvalidSender",
      "type": "error"
    },
    {
      "inputs": [
        {
          "internalType": "uint256",
          "name": "tokenId",
          "type": "uint256"
        }
      ],
      "name": "ERC721NonexistentToken",
      "type": "error"
    },
    {
      "inputs": [
        {
          "internalType": "address",
          "name": "owner",
          "type": "address"
        },
        {
          "internalType": "uint256",
          "name": "index",
          "type": "uint256"
        }
      ],
      "name": "ERC721OutOfBoundsIndex",
      "type": "error"
    },
    {
      "inputs": [
        {
          "internalType": "address",
          "name": "owner",
          "type": "address"
        }
      ],
      "name": "OwnableInvalidOwner",
      "type": "error"
    },
    {
      "inputs": [
        {
          "internalType": "address",
          "name": "account",
          "type": "address"
        }
      ],
      "name": "OwnableUnauthorizedAccount",
      "type": "error"
    },
    {
      "anonymous": false,
      "inputs": [
        {
          "indexed": true,
          "internalType": "address",
          "name": "owner",
          "type": "address"
        },
        {
          "indexed": true,
          "internalType": "address",
          "name": "approved",
          "type": "address"
        },
        {
          "indexed": true,
          "internalType": "uint256",
          "name": "tokenId",
          "type": "uint256"
        }
      ],
      "name": "Approval",
      "type": "event"
    },
    {
      "anonymous": false,
      "inputs": [
        {
          "indexed": true,
          "internalType": "address",
          "name": "owner",
          "type": "address"
        },
        {
          "indexed": true,
          "internalType": "address",
          "name": "operator",
          "type": "address"
        },
        {
          "indexed": false,
          "internalType": "bool",
          "name": "approved",
          "type": "bool"
        }
      ],
      "name": "ApprovalForAll",
      "type": "event"
    },
    {
      "anonymous": false,
      "inputs": [
        {
          "indexed": false,
          "internalType": "uint256",
          "name": "_fromTokenId",
          "type": "uint256"
        },
        {
          "indexed": false,
          "internalType": "uint256",
          "name": "_toTokenId",
          "type": "uint256"
        }
      ],
      "name": "BatchMetadataUpdate",
      "type": "event"
    },
    {
      "anonymous": false,
      "inputs": [
        {
          "indexed": false,
          "internalType": "uint256",
          "name": "_tokenId",
          "type": "uint256"
        }
      ],
      "name": "MetadataUpdate",
      "type": "event"
    },
    {
      "anonymous": false,
      "inputs": [
        {
          "indexed": true,
          "internalType": "address",
          "name": "previousOwner",
          "type": "address"
        },
        {
          "indexed": true,
          "internalType": "address",
          "name": "newOwner",
          "type": "address"
        }
      ],
      "name": "OwnershipTransferred",
      "type": "event"
    },
    {
      "anonymous": false,
      "inputs": [
        {
          "indexed": true,
          "internalType": "address",
          "name": "from",
          "type": "address"
        },
        {
          "indexed": true,
          "internalType": "address",
          "name": "to",
          "type": "address"
        },
        {
          "indexed": true,
          "internalType": "uint256",
          "name": "tokenId",
          "type": "uint256"
        }
      ],
      "name": "Transfer",
      "type": "event"
    },
    {
      "inputs": [
        {
          "internalType": "address",
          "name": "to",
          "type": "address"
        },
        {
          "internalType": "uint256",
          "name": "tokenId",
          "type": "uint256"
        }
      ],
      "name": "approve",
      "outputs": [],
      "stateMutability": "nonpayable",
      "type": "function"
    },
    {
      "inputs": [
        {
          "internalType": "address",
          "name": "owner",
          "type": "address"
        }
      ],
      "name": "balanceOf",
      "outputs": [
        {
          "internalType": "uint256",
          "name": "",
          "type": "uint256"
        }
      ],
      "stateMutability": "view",
      "type": "function"
    },
    {
      "inputs": [
        {
          "internalType": "uint256",
          "name": "tokenId",
          "type": "uint256"
        }
      ],
      "name": "getApproved",
      "outputs": [
        {
          "internalType": "address",
          "name": "",
          "type": "address"
        }
      ],
      "stateMutability": "view",
      "type": "function"
    },
    {
      "inputs": [],
      "name": "getCurrentTokenId",
      "outputs": [
        {
          "internalType": "uint256",
          "name": "",
          "type": "uint256"
        }
      ],
      "stateMutability": "view",
      "type": "function"
    },
    {
      "inputs": [
        {
          "internalType": "address",
          "name": "owner",
          "type": "address"
        },
        {
          "internalType": "address",
          "name": "operator",
          "type": "address"
        }
      ],
      "name": "isApprovedForAll",
      "outputs": [
        {
          "internalType": "bool",
          "name": "",
          "type": "bool"
        }
      ],
      "stateMutability": "view",
      "type": "function"
    },
    {
      "inputs": [],
      "name": "name",
      "outputs": [
        {
          "internalType": "string",
          "name": "",
          "type": "string"
        }
      ],
      "stateMutability": "view",
      "type": "function"
    },
    {
      "inputs": [],
      "name": "owner",
      "outputs": [
        {
          "internalType": "address",
          "name": "",
          "type": "address"
        }
      ],
      "stateMutability": "view",
      "type": "function"
    },
    {
      "inputs": [
        {
          "internalType": "uint256",
          "name": "tokenId",
          "type": "uint256"
        }
      ],
      "name": "ownerOf",
      "outputs": [
        {
          "internalType": "address",
          "name": "",
          "type": "address"
        }
      ],
      "stateMutability": "view",
      "type": "function"
    },
    {
      "inputs": [],
      "name": "renounceOwnership",
      "outputs": [],
      "stateMutability": "nonpayable",
      "type": "function"
    },
    {
      "inputs": [
        {
          "internalType": "address",
          "name": "to",
          "type": "address"
        }
      ],
      "name": "safeMint",
      "outputs": [],
      "stateMutability": "nonpayable",
      "type": "function"
    },
    {
      "inputs": [
        {
          "internalType": "address",
          "name": "from",
          "type": "address"
        },
        {
          "internalType": "address",
          "name": "to",
          "type": "address"
        },
        {
          "internalType": "uint256",
          "name": "tokenId",
          "type": "uint256"
        }
      ],
      "name": "safeTransferFrom",
      "outputs": [],
      "stateMutability": "nonpayable",
      "type": "function"
    },
    {
      "inputs": [
        {
          "internalType": "address",
          "name": "from",
          "type": "address"
        },
        {
          "internalType": "address",
          "name": "to",
          "type": "address"
        },
        {
          "internalType": "uint256",
          "name": "tokenId",
          "type": "uint256"
        },
        {
          "internalType": "bytes",
          "name": "data",
          "type": "bytes"
        }
      ],
      "name": "safeTransferFrom",
      "outputs": [],
      "stateMutability": "nonpayable",
      "type": "function"
    },
    {
      "inputs": [
        {
          "internalType": "address",
          "name": "operator",
          "type": "address"
        },
        {
          "internalType": "bool",
          "name": "approved",
          "type": "bool"
        }
      ],
      "name": "setApprovalForAll",
      "outputs": [],
      "stateMutability": "nonpayable",
      "type": "function"
    },
    {
      "inputs": [
        {
          "internalType": "string",
          "name": "baseURI_",
          "type": "string"
        }
      ],
      "name": "setBaseURI",
      "outputs": [],
      "stateMutability": "nonpayable",
      "type": "function"
    },
    {
      "inputs": [
        {
          "internalType": "bytes4",
          "name": "interfaceId",
          "type": "bytes4"
        }
      ],
      "name": "supportsInterface",
      "outputs": [
        {
          "internalType": "bool",
          "name": "",
          "type": "bool"
        }
      ],
      "stateMutability": "view",
      "type": "function"
    },
    {
      "inputs": [],
      "name": "symbol",
      "outputs": [
        {
          "internalType": "string",
          "name": "",
          "type": "string"
        }
      ],
      "stateMutability": "view",
      "type": "function"
    },
    {
      "inputs": [
        {
          "internalType": "uint256",
          "name": "index",
          "type": "uint256"
        }
      ],
      "name": "tokenByIndex",
      "outputs": [
        {
          "internalType": "uint256",
          "name": "",
          "type": "uint256"
        }
      ],
      "stateMutability": "view",
      "type": "function"
    },
    {
      "inputs": [
        {
          "internalType": "address",
          "name": "owner",
          "type": "address"
        },
        {
          "internalType": "uint256",
          "name": "index",
          "type": "uint256"
        }
      ],
      "name": "tokenOfOwnerByIndex",
      "outputs": [
        {
          "internalType": "uint256",
          "name": "",
          "type": "uint256"
        }
      ],
      "stateMutability": "view",
      "type": "function"
    },
    {
      "inputs": [
        {
          "internalType": "uint256",
          "name": "tokenId",
          "type": "uint256"
        }
      ],
      "name": "tokenURI",
      "outputs": [
        {
          "internalType": "string",
          "name": "",
          "type": "string"
        }
      ],
      "stateMutability": "view",
      "type": "function"
    },
    {
      "inputs": [],
      "name": "totalSupply",
      "outputs": [
        {
          "internalType": "uint256",
          "name": "",
          "type": "uint256"
        }
      ],
      "stateMutability": "view",
      "type": "function"
    },
    {
      "inputs": [
        {
          "internalType": "address",
          "name": "from",
          "type": "address"
        },
        {
          "internalType": "address",
          "name": "to",
          "type": "address"
        },
        {
          "internalType": "uint256",
          "name": "tokenId",
          "type": "uint256"
        }
      ],
      "name": "transferFrom",
      "outputs": [],
      "stateMutability": "nonpayable",
      "type": "function"
    },
    {
      "inputs": [
        {
          "internalType": "address",
          "name": "newOwner",
          "type": "address"
        }
      ],
      "name": "transferOwnership",
      "outputs": [],
      "stateMutability": "nonpayable",
      "type": "function"
    }
  ],
  "bytecode": "0x608060405234620005515762001feb803803806200001d816200058c565b92833981019060208082840312620005515781516001600160401b039283821162000551570192601f90808286011215620005515784518481116200055657601f199562000071828501881686016200058c565b928284528583830101116200055157849060005b8381106200053c57505060009183010152620000a06200056c565b92600784526610dbdc9953919560ca1b81850152620000be6200056c565b60049081815263434f524560e01b8382015285518781116200044057600054966001978881811c9116801562000531575b868210146200051c57908188849311620004c6575b508590888311600114620004615760009262000455575b5050600019600383901b1c191690871b176000555b805190878211620004405786548781811c9116801562000435575b858210146200042057908187849311620003ca575b50849087831160011462000366576000926200035a575b5050600019600383901b1c191690861b1785555b33156200034257600b8054336001600160a01b0319821681179092556001600160a01b03167f8be0079c531659141344cd1fd0a4f28419497f9722a3daafe3b4186f6b6457e0600080a382519586116200032d57600d54908582811c9216801562000322575b838310146200030d5750838111620002c1575b5080928511600114620002565750839450908392916000946200024a575b50501b916000199060031b1c191617600d555b6000600c55604051611a389081620005b38239f35b01519250388062000222565b929484908116600d60005284600020946000905b88838310620002a657505050106200028c575b505050811b01600d5562000235565b015160001960f88460031b161c191690553880806200027d565b8587015188559096019594850194879350908101906200026a565b600d600052816000208480880160051c82019284891062000303575b0160051c019085905b828110620002f657505062000204565b60008155018590620002e6565b92508192620002dd565b602290634e487b7160e01b6000525260246000fd5b91607f1691620001f1565b604190634e487b7160e01b6000525260246000fd5b602490600060405191631e4fbdf760e01b8352820152fd5b01519050388062000177565b908a8994169184600052866000209260005b88828210620003b3575050841162000399575b505050811b0185556200018b565b015160001960f88460031b161c191690553880806200038b565b8385015186558c9790950194938401930162000378565b90915087600052846000208780850160051c82019287861062000416575b918a91869594930160051c01915b8281106200040657505062000160565b600081558594508a9101620003f6565b92508192620003e8565b602284634e487b7160e01b6000525260246000fd5b90607f16906200014b565b604183634e487b7160e01b6000525260246000fd5b0151905038806200011b565b908b8a94169160008052876000209260005b89828210620004af575050841162000495575b505050811b0160005562000130565b015160001960f88460031b161c1916905538808062000486565b8385015186558d9790950194938401930162000473565b90915060008052856000208880850160051c82019288861062000512575b918b91869594930160051c01915b8281106200050257505062000104565b600081558594508b9101620004f2565b92508192620004e4565b602285634e487b7160e01b6000525260246000fd5b90607f1690620000ef565b81810183015185820184015286920162000085565b600080fd5b634e487b7160e01b600052604160045260246000fd5b60408051919082016001600160401b038111838210176200055657604052565b6040519190601f01601f191682016001600160401b03811183821017620005565760405256fe6080604081815260048036101561001557600080fd5b600092833560e01c90816301ffc9a71461108b5750806306fdde0314610fda578063081812fc14610fa1578063095ea7b314610eae57806318160ddd14610e8f57806323b872dd14610e775780632f745c5914610df557806340d097c31461089157806342842e0e146108625780634f6ccce71461080e57806355f804b31461066a578063561892361461064b5780636352211e1461061b57806370a08231146105ee578063715018a6146105935780638da5cb5b1461056b57806395d89b411461048f578063a22cb465146103d5578063b88d4fde14610363578063c87b56dd1461020b578063e985e9c5146101b95763f2fde38b1461011557600080fd5b346101b55760203660031901126101b55761012e6111f1565b90610137611707565b6001600160a01b03809216928315610186575050600b54826001600160a01b0319821617600b55167f8be0079c531659141344cd1fd0a4f28419497f9722a3daafe3b4186f6b6457e08380a380f35b908460249251917f1e4fbdf7000000000000000000000000000000000000000000000000000000008352820152fd5b8280fd5b50503461020757806003193601126102075760ff816020936101d96111f1565b6101e161120c565b6001600160a01b0391821683526005875283832091168252855220549151911615158152f35b5080fd5b5091346103605760209081600319360112610360578251908094600d5491610232836112fe565b8085528585019360019081811690811561034457506001146102ed575b5050610262846102d19697980385611289565b8351156102d55750610290926102c09261027e6025933561174b565b9088519586935180928a8601906111a9565b82016102a4825180938a80850191016111a9565b0164173539b7b760d91b87820152036005810184520182611289565b925b519282849384528301906111cc565b0390f35b925050508351906102e582611257565b8152926102c2565b9750600d82527fd7b6990105719101dabeb77144f2a3385c8033acd3af97e9423a695e81ad1eb59782985b828a10610331575050509583018401956102628461024f565b8054878b01890152988701988101610318565b60ff191686525050151560051b8401850196506102628461024f565b80fd5b8382346102075760803660031901126102075761037e6111f1565b61038661120c565b6044359060643567ffffffffffffffff81116103d157366023820112156103d1576103ce948160246103bd933693013591016112c7565b926103c9838383611338565b6118c1565b80f35b8580fd5b5090346101b557806003193601126101b5576103ef6111f1565b906024359182151580930361048b576001600160a01b031692831561045d5750338452600560205280842083855260205280842060ff1981541660ff8416179055519081527f17307eab39ab6107e8899845ad3d59bd9653f200f220920489ca2b5937696c3160203392a380f35b8360249251917f5b08ba18000000000000000000000000000000000000000000000000000000008352820152fd5b8480fd5b8284346103605780600319360112610360578151918282600193600154946104b6866112fe565b91828552602096876001821691826000146105445750506001146104e8575b5050506102d192916102c2910385611289565b9190869350600183527fb10e2d527612073b26eecdfd717e6a320cf44b4afac2b0732d9fcbe2b7fa0cf65b82841061052c57505050820101816102c26102d16104d5565b8054848a018601528895508794909301928101610513565b60ff19168782015293151560051b860190930193508492506102c291506102d190506104d5565b5050346102075781600319360112610207576020906001600160a01b03600b54169051908152f35b83346103605780600319360112610360576105ac611707565b806001600160a01b03600b546001600160a01b03198116600b55167f8be0079c531659141344cd1fd0a4f28419497f9722a3daafe3b4186f6b6457e08280a380f35b5050346102075760203660031901126102075760209061061461060f6111f1565b61167b565b9051908152f35b50913461036057602036600319011261036057506001600160a01b03610643602093356116cc565b915191168152f35b505034610207578160031936011261020757602090600c549051908152f35b508234610360576020806003193601126102075767ffffffffffffffff90833582811161080a573660238201121561080a576106af90369060248188013591016112c7565b936106b8611707565b84519283116107f757506106cd600d546112fe565b601f8111610794575b50602090601f831160011461071357508293829392610708575b50508160011b916000199060031b1c191617600d5580f35b0151905083806106f0565b600d8452601f198316947fd7b6990105719101dabeb77144f2a3385c8033acd3af97e9423a695e81ad1eb5929185905b87821061077c575050836001959610610763575b505050811b01600d5580f35b015160001960f88460031b161c19169055838080610757565b80600185968294968601518155019501930190610743565b600d84527fd7b6990105719101dabeb77144f2a3385c8033acd3af97e9423a695e81ad1eb5601f840160051c810191602085106107ed575b601f0160051c01905b8181106107e257506106d6565b8481556001016107d5565b90915081906107cc565b836041602492634e487b7160e01b835252fd5b8380fd5b50346101b55760203660031901126101b557803592600854841015610847576020836108398661162e565b91905490519160031b1c8152f35b6044939192519263295f44f760e21b84528301526024820152fd5b505034610207576103ce9061087636611222565b9192519261088384611257565b8584526103c9838383611338565b5082903461020757602090816003193601126101b5576108af6111f1565b936108b8611707565b600c549160001990818414610de257600196878501600c5583516108db81611257565b8781526001600160a01b0391828116928315610dcc57878a5260028952868a20541680610d96575b838a5260038952868a208b8154019055878a5260028952868a20846001600160a01b03198254161790558784827fddf252ad1be2c89b69c2b068fc378daa952ba7f163c4a11628f55a4df523b3ef8d80a480610d1957600854888b5260098a5280888c205568010000000000000000811015610d06578861098c828e6109a5940160085561162e565b90919082549060031b91821b91600019901b1916179055565b838103610cbc575b610c8d573b610b63575b50506109c28461174b565b916109fb60258551856109de82975180928c80860191016111a9565b810164173539b7b760d91b8a820152036005810186520184611289565b848752600a86528387209280519267ffffffffffffffff8411610b505750610a2384546112fe565b601f8111610b0a575b508690601f8411600114610a8a57889984939284927ff8e1a15aba9398e019f0b49df1a4fde98ee17ae345cb5f6b5e2c27f5033e8ce79b95610a7f575b50501b9260031b1c19161790555b51908152a180f35b015193508b80610a69565b989291601f19831691858a52888a20928a5b818110610af557509a847ff8e1a15aba9398e019f0b49df1a4fde98ee17ae345cb5f6b5e2c27f5033e8ce79b9c10610add575b50505050811b019055610a77565b01519060f88460031b161c1916905588808080610acf565b8c830151855593860193918a01918a01610a9c565b848952878920601f850160051c810191898610610b46575b601f0160051c01908a905b828110610b3b575050610a2c565b8a8155018a90610b2d565b9091508190610b22565b886041602492634e487b7160e01b835252fd5b8495929794989391969851898180610ba3630a85bd0160e11b958683528d33908401528a60248401528860448401526080606484015260848301906111cc565b0381898c5af1869181610c49575b50610c115750505050503d600014610c09573d610bcd816112ab565b90610bda84519283611289565b81528091863d92013e5b80519485610c03575050602493505191633250574960e11b8352820152fd5b85925001fd5b506060610be4565b6001600160e01b031990999792949998939695981603610c33575087806109b7565b60249250835191633250574960e11b8352820152fd5b9091508a81813d8311610c86575b610c618183611289565b81010312610c8257516001600160e01b031981168103610c8257908b610bb1565b8680fd5b503d610c57565b6024848a8851917f73c6ac6e000000000000000000000000000000000000000000000000000000008352820152fd5b610cc58261167b565b868101908111610cf357848b5260068a52878b20818c528a5288888c2055888b5260078a52878b20556109ad565b60248b601188634e487b7160e01b835252fd5b60248b604188634e487b7160e01b835252fd5b8084146109a557610d298161167b565b888b5260078a52878b2054818103610d5e575b50888b528a88812055818b5260068a52878b20908b52895289878120556109a5565b828c526006808c52898d20838e528c52898d2054848e52908c52898d20828e528c52898d208190558c5260078b52888c20558c610d3c565b610db788600052600460205260406000206001600160a01b03198154169055565b808a5260038952868a20868154019055610903565b6024858b895191633250574960e11b8352820152fd5b856011602492634e487b7160e01b835252fd5b509134610360578160031936011261036057610e0f6111f1565b9260243590610e1d8561167b565b821015610e4b57509082916001600160a01b0360209516825260068552828220908252845220549051908152f35b925163295f44f760e21b81526001600160a01b0390941692840192835260208301525081906040010390fd5b8334610360576103ce610e8936611222565b91611338565b5050346102075781600319360112610207576020906008549051908152f35b5090346101b557806003193601126101b557610ec86111f1565b91602435610ed5816116cc565b33151580610f8e575b80610f66575b610f375781906001600160a01b03809616958691167f8c5be1e5ebec7d5bd14f71427d1e84f3dd0314c0f7b2291e5b200ac8c7c3b9258880a484526020528220906001600160a01b031982541617905580f35b83517fa9fbf51f0000000000000000000000000000000000000000000000000000000081523381850152602490fd5b506001600160a01b0381168652600560205283862033875260205260ff848720541615610ee4565b50336001600160a01b0382161415610ede565b50346101b55760203660031901126101b55781602093826001600160a01b039335610fcb816116cc565b50825285522054169051908152f35b82843461036057806003193601126103605781519182828354610ffc816112fe565b9081845260209560019187600182169182600014610544575050600114611030575050506102d192916102c2910385611289565b91908693508280527f290decd9548b62a8d60345a988386fc84ba6bc95484008f6362f93160ef3e5635b82841061107357505050820101816102c26102d16104d5565b8054848a01860152889550879490930192810161105a565b925050346101b55760203660031901126101b557356001600160e01b031981168091036101b557602092507f490649060000000000000000000000000000000000000000000000000000000081149081156110e8575b5015158152f35b7f780e9d630000000000000000000000000000000000000000000000000000000081149150811561111b575b50386110e1565b7f80ac58cd0000000000000000000000000000000000000000000000000000000081149150811561117f575b8115611155575b5038611114565b7f01ffc9a7000000000000000000000000000000000000000000000000000000009150143861114e565b7f5b5e139f0000000000000000000000000000000000000000000000000000000081149150611147565b60005b8381106111bc5750506000910152565b81810151838201526020016111ac565b906020916111e5815180928185528580860191016111a9565b601f01601f1916010190565b600435906001600160a01b038216820361120757565b600080fd5b602435906001600160a01b038216820361120757565b6060906003190112611207576001600160a01b0390600435828116810361120757916024359081168103611207579060443590565b6020810190811067ffffffffffffffff82111761127357604052565b634e487b7160e01b600052604160045260246000fd5b90601f8019910116810190811067ffffffffffffffff82111761127357604052565b67ffffffffffffffff811161127357601f01601f191660200190565b9291926112d3826112ab565b916112e16040519384611289565b829481845281830111611207578281602093846000960137010152565b90600182811c9216801561132e575b602083101461131857565b634e487b7160e01b600052602260045260246000fd5b91607f169161130d565b916001600160a01b038083169384156116165760009483865260209560028752604096848883205416963315158061156f575b5087158015611537575b848452600383528984206001815401905587845260028352898420856001600160a01b031982541617905587858a7fddf252ad1be2c89b69c2b068fc378daa952ba7f163c4a11628f55a4df523b3ef8780a4156114bb5760085487845260098352808a852055680100000000000000008110156114a7578761098c826001611400940160085561162e565b838803611455575b50505050169283830361141b5750505050565b6064945051927f64283d7b000000000000000000000000000000000000000000000000000000008452600484015260248301526044820152fd5b61145e9061167b565b6000198101939084116114935782916007918a9452600681528383208584528152878484205587835252205538808080611408565b602483634e487b7160e01b81526011600452fd5b602484634e487b7160e01b81526041600452fd5b878414611400576114cb8861167b565b8784526007835289842054818103611500575b50878452838a8120558884526006835289842090845282528289812055611400565b898552600684528a852082865284528a8520548a8652600685528b86208287528552808c8720558552600784528a852055386114de565b61155888600052600460205260406000206001600160a01b03198154169055565b888452600383528984208054600019019055611375565b806115d5575b15611580573861136b565b88878961159d576024915190637e27328960e01b82526004820152fd5b90517f177e802f0000000000000000000000000000000000000000000000000000000081523360048201526024810191909152604490fd5b5033881480156115fa575b8061157557508683526004825233868a8520541614611575565b5087835260058252888320338452825260ff89842054166115e0565b6024604051633250574960e11b815260006004820152fd5b6008548110156116655760086000527ff3f7a9fe364faab93b216da50a3214154f22a0a2b415b23a84c8169e8b636ee30190600090565b634e487b7160e01b600052603260045260246000fd5b6001600160a01b0316801561169b57600052600360205260406000205490565b60246040517f89c62b6400000000000000000000000000000000000000000000000000000000815260006004820152fd5b8060005260026020526001600160a01b03604060002054169081156116ef575090565b60249060405190637e27328960e01b82526004820152fd5b6001600160a01b03600b5416330361171b57565b60246040517f118cdaa7000000000000000000000000000000000000000000000000000000008152336004820152fd5b806000917a184f03e93ff9f4daa797ed6e38ed64bf6a1f010000000000000000808210156118b3575b506d04ee2d6d415b85acef8100000000808310156118a4575b50662386f26fc1000080831015611895575b506305f5e10080831015611886575b5061271080831015611877575b506064821015611867575b600a8092101561185d575b60019081602160018601956117e5876112ab565b966117f36040519889611289565b808852611802601f19916112ab565b01366020890137860101905b61181a575b5050505090565b600019019083907f30313233343536373839616263646566000000000000000000000000000000008282061a8353049182156118585791908261180e565b611813565b91600101916117d1565b91906064600291049101916117c6565b600491939204910191386117bb565b600891939204910191386117ae565b6010919392049101913861179f565b6020919392049101913861178d565b604093508104915038611774565b813b6118ce575b50505050565b6001600160a01b0394919293948093169360405193630a85bd0160e11b928386523360048701521660248501526044840152608060648401528261191860209660848301906111cc565b039285816000958187895af18491816119c2575b5061198b575050503d600014611983573d611946816112ab565b906119546040519283611289565b81528091843d92013e5b8051928361197e5760248360405190633250574960e11b82526004820152fd5b019050fd5b50606061195e565b9092506001600160e01b031991945016036119aa5750388080806118c8565b60249060405190633250574960e11b82526004820152fd5b9091508681813d83116119fb575b6119da8183611289565b8101031261048b57516001600160e01b03198116810361048b57903861192c565b503d6119d056fea264697066735822122072cf1b50e958b06b62051987fbd0d1a822468b7885b9da4972dd095d0699a10d64736f6c63430008180033",
  "linkReferences": {},
  "deployedLinkReferences": {}
}