{
  "_format": "hh-sol-artifact-1",
  "contractName": "CoreNFT",
  "sourceName": "contracts/NFT.sol",
  "abi": [
    {
      "inputs": [
        {
          "internalType": "string",
          "name": "baseURI_",
          "type": "string"
        }
      ],
      "stateMutability": "nonpayable",
      "type": "constructor"
    },
    {
      "inputs": [],
      "name": "ERC721EnumerableForbiddenBatchMint",
      "type": "error"
    },
    {
      "inputs": [
        {
          "internalType": "address",
          "name": "sender",
          "type": "address"
        },
        {
          "internalType": "uint256",
          "name": "tokenId",
          "type": "uint256"
        },
        {
          "internalType": "address",
          "name": "owner",
          "type": "address"
        }
      ],
      "name": "ERC721IncorrectOwner",
      "type": "error"
    },
    {
      "inputs": [
        {
          "internalType": "address",
          "name": "operator",
          "type": "address"
        },
        {
          "internalType": "uint256",
          "name": "tokenId",
          "type": "uint256"
        }
      ],
      "name": "ERC721InsufficientApproval",
      "type": "error"
    },
    {
      "inputs": [
        {
          "internalType": "address",
          "name": "approver",
          "type": "address"
        }
      ],
      "name": "ERC721InvalidApprover",
      "type": "error"
    },
    {
      "inputs": [
        {
          "internalType": "address",
          "name": "operator",
          "type": "address"
        }
      ],
      "name": "ERC721InvalidOperator",
      "type": "error"
    },
    {
      "inputs": [
        {
          "internalType": "address",
          "name": "owner",
          "type": "address"
        }
      ],
      "name": "ERC721InvalidOwner",
      "type": "error"
    },
    {
      "inputs": [
        {
          "internalType": "address",
          "name": "receiver",
          "type": "address"
        }
      ],
      "name": "ERC721InvalidReceiver",
      "type": "error"
    },
    {
      "inputs": [
        {
          "internalType": "address",
          "name": "sender",
          "type": "address"
        }
      ],
      "name": "ERC721InvalidSender",
      "type": "error"
    },
    {
      "inputs": [
        {
          "internalType": "uint256",
          "name": "tokenId",
          "type": "uint256"
        }
      ],
      "name": "ERC721NonexistentToken",
      "type": "error"
    },
    {
      "inputs": [
        {
          "internalType": "address",
          "name": "owner",
          "type": "address"
        },
        {
          "internalType": "uint256",
          "name": "index",
          "type": "uint256"
        }
      ],
      "name": "ERC721OutOfBoundsIndex",
      "type": "error"
    },
    {
      "inputs": [
        {
          "internalType": "address",
          "name": "owner",
          "type": "address"
        }
      ],
      "name": "OwnableInvalidOwner",
      "type": "error"
    },
    {
      "inputs": [
        {
          "internalType": "address",
          "name": "account",
          "type": "address"
        }
      ],
      "name": "OwnableUnauthorizedAccount",
      "type": "error"
    },
    {
      "anonymous": false,
      "inputs": [
        {
          "indexed": true,
          "internalType": "address",
          "name": "owner",
          "type": "address"
        },
        {
          "indexed": true,
          "internalType": "address",
          "name": "approved",
          "type": "address"
        },
        {
          "indexed": true,
          "internalType": "uint256",
          "name": "tokenId",
          "type": "uint256"
        }
      ],
      "name": "Approval",
      "type": "event"
    },
    {
      "anonymous": false,
      "inputs": [
        {
          "indexed": true,
          "internalType": "address",
          "name": "owner",
          "type": "address"
        },
        {
          "indexed": true,
          "internalType": "address",
          "name": "operator",
          "type": "address"
        },
        {
          "indexed": false,
          "internalType": "bool",
          "name": "approved",
          "type": "bool"
        }
      ],
      "name": "ApprovalForAll",
      "type": "event"
    },
    {
      "anonymous": false,
      "inputs": [
        {
          "indexed": false,
          "internalType": "uint256",
          "name": "_fromTokenId",
          "type": "uint256"
        },
        {
          "indexed": false,
          "internalType": "uint256",
          "name": "_toTokenId",
          "type": "uint256"
        }
      ],
      "name": "BatchMetadataUpdate",
      "type": "event"
    },
    {
      "anonymous": false,
      "inputs": [
        {
          "indexed": false,
          "internalType": "uint256",
          "name": "_tokenId",
          "type": "uint256"
        }
      ],
      "name": "MetadataUpdate",
      "type": "event"
    },
    {
      "anonymous": false,
      "inputs": [
        {
          "indexed": true,
          "internalType": "address",
          "name": "previousOwner",
          "type": "address"
        },
        {
          "indexed": true,
          "internalType": "address",
          "name": "newOwner",
          "type": "address"
        }
      ],
      "name": "OwnershipTransferred",
      "type": "event"
    },
    {
      "anonymous": false,
      "inputs": [
        {
          "indexed": true,
          "internalType": "address",
          "name": "from",
          "type": "address"
        },
        {
          "indexed": true,
          "internalType": "address",
          "name": "to",
          "type": "address"
        },
        {
          "indexed": true,
          "internalType": "uint256",
          "name": "tokenId",
          "type": "uint256"
        }
      ],
      "name": "Transfer",
      "type": "event"
    },
    {
      "inputs": [
        {
          "internalType": "address",
          "name": "to",
          "type": "address"
        },
        {
          "internalType": "uint256",
          "name": "tokenId",
          "type": "uint256"
        }
      ],
      "name": "approve",
      "outputs": [],
      "stateMutability": "nonpayable",
      "type": "function"
    },
    {
      "inputs": [
        {
          "internalType": "address",
          "name": "owner",
          "type": "address"
        }
      ],
      "name": "balanceOf",
      "outputs": [
        {
          "internalType": "uint256",
          "name": "",
          "type": "uint256"
        }
      ],
      "stateMutability": "view",
      "type": "function"
    },
    {
      "inputs": [
        {
          "internalType": "uint256",
          "name": "tokenId",
          "type": "uint256"
        }
      ],
      "name": "getApproved",
      "outputs": [
        {
          "internalType": "address",
          "name": "",
          "type": "address"
        }
      ],
      "stateMutability": "view",
      "type": "function"
    },
    {
      "inputs": [],
      "name": "getCurrentTokenId",
      "outputs": [
        {
          "internalType": "uint256",
          "name": "",
          "type": "uint256"
        }
      ],
      "stateMutability": "view",
      "type": "function"
    },
    {
      "inputs": [
        {
          "internalType": "address",
          "name": "owner",
          "type": "address"
        },
        {
          "internalType": "address",
          "name": "operator",
          "type": "address"
        }
      ],
      "name": "isApprovedForAll",
      "outputs": [
        {
          "internalType": "bool",
          "name": "",
          "type": "bool"
        }
      ],
      "stateMutability": "view",
      "type": "function"
    },
    {
      "inputs": [],
      "name": "name",
      "outputs": [
        {
          "internalType": "string",
          "name": "",
          "type": "string"
        }
      ],
      "stateMutability": "view",
      "type": "function"
    },
    {
      "inputs": [],
      "name": "owner",
      "outputs": [
        {
          "internalType": "address",
          "name": "",
          "type": "address"
        }
      ],
      "stateMutability": "view",
      "type": "function"
    },
    {
      "inputs": [
        {
          "internalType": "uint256",
          "name": "tokenId",
          "type": "uint256"
        }
      ],
      "name": "ownerOf",
      "outputs": [
        {
          "internalType": "address",
          "name": "",
          "type": "address"
        }
      ],
      "stateMutability": "view",
      "type": "function"
    },
    {
      "inputs": [],
      "name": "renounceOwnership",
      "outputs": [],
      "stateMutability": "nonpayable",
      "type": "function"
    },
    {
      "inputs": [
        {
          "internalType": "address",
          "name": "to",
          "type": "address"
        }
      ],
      "name": "safeMint",
      "outputs": [],
      "stateMutability": "nonpayable",
      "type": "function"
    },
    {
      "inputs": [
        {
          "internalType": "address",
          "name": "from",
          "type": "address"
        },
        {
          "internalType": "address",
          "name": "to",
          "type": "address"
        },
        {
          "internalType": "uint256",
          "name": "tokenId",
          "type": "uint256"
        }
      ],
      "name": "safeTransferFrom",
      "outputs": [],
      "stateMutability": "nonpayable",
      "type": "function"
    },
    {
      "inputs": [
        {
          "internalType": "address",
          "name": "from",
          "type": "address"
        },
        {
          "internalType": "address",
          "name": "to",
          "type": "address"
        },
        {
          "internalType": "uint256",
          "name": "tokenId",
          "type": "uint256"
        },
        {
          "internalType": "bytes",
          "name": "data",
          "type": "bytes"
        }
      ],
      "name": "safeTransferFrom",
      "outputs": [],
      "stateMutability": "nonpayable",
      "type": "function"
    },
    {
      "inputs": [
        {
          "internalType": "address",
          "name": "operator",
          "type": "address"
        },
        {
          "internalType": "bool",
          "name": "approved",
          "type": "bool"
        }
      ],
      "name": "setApprovalForAll",
      "outputs": [],
      "stateMutability": "nonpayable",
      "type": "function"
    },
    {
      "inputs": [
        {
          "internalType": "string",
          "name": "baseURI_",
          "type": "string"
        }
      ],
      "name": "setBaseURI",
      "outputs": [],
      "stateMutability": "nonpayable",
      "type": "function"
    },
    {
      "inputs": [
        {
          "internalType": "bytes4",
          "name": "interfaceId",
          "type": "bytes4"
        }
      ],
      "name": "supportsInterface",
      "outputs": [
        {
          "internalType": "bool",
          "name": "",
          "type": "bool"
        }
      ],
      "stateMutability": "view",
      "type": "function"
    },
    {
      "inputs": [],
      "name": "symbol",
      "outputs": [
        {
          "internalType": "string",
          "name": "",
          "type": "string"
        }
      ],
      "stateMutability": "view",
      "type": "function"
    },
    {
      "inputs": [
        {
          "internalType": "uint256",
          "name": "index",
          "type": "uint256"
        }
      ],
      "name": "tokenByIndex",
      "outputs": [
        {
          "internalType": "uint256",
          "name": "",
          "type": "uint256"
        }
      ],
      "stateMutability": "view",
      "type": "function"
    },
    {
      "inputs": [
        {
          "internalType": "address",
          "name": "owner",
          "type": "address"
        },
        {
          "internalType": "uint256",
          "name": "index",
          "type": "uint256"
        }
      ],
      "name": "tokenOfOwnerByIndex",
      "outputs": [
        {
          "internalType": "uint256",
          "name": "",
          "type": "uint256"
        }
      ],
      "stateMutability": "view",
      "type": "function"
    },
    {
      "inputs": [
        {
          "internalType": "uint256",
          "name": "tokenId",
          "type": "uint256"
        }
      ],
      "name": "tokenURI",
      "outputs": [
        {
          "internalType": "string",
          "name": "",
          "type": "string"
        }
      ],
      "stateMutability": "view",
      "type": "function"
    },
    {
      "inputs": [],
      "name": "totalSupply",
      "outputs": [
        {
          "internalType": "uint256",
          "name": "",
          "type": "uint256"
        }
      ],
      "stateMutability": "view",
      "type": "function"
    },
    {
      "inputs": [
        {
          "internalType": "address",
          "name": "from",
          "type": "address"
        },
        {
          "internalType": "address",
          "name": "to",
          "type": "address"
        },
        {
          "internalType": "uint256",
          "name": "tokenId",
          "type": "uint256"
        }
      ],
      "name": "transferFrom",
      "outputs": [],
      "stateMutability": "nonpayable",
      "type": "function"
    },
    {
      "inputs": [
        {
          "internalType": "address",
          "name": "newOwner",
          "type": "address"
        }
      ],
      "name": "transferOwnership",
      "outputs": [],
      "stateMutability": "nonpayable",
      "type": "function"
    }
  ],
  "bytecode": "0x60806040523480156200001157600080fd5b5060405162001d1b38038062001d1b833981016040819052620000349162000153565b336040518060400160405280600781526020016610dbdc9953919560ca1b81525060405180604001604052806004815260200163434f524560e01b8152508160009081620000839190620002b9565b506001620000928282620002b9565b5050506001600160a01b038116620000c457604051631e4fbdf760e01b81526000600482015260240160405180910390fd5b620000cf81620000eb565b50600d620000de8282620002b9565b50506000600c5562000385565b600b80546001600160a01b038381166001600160a01b0319831681179093556040519116919082907f8be0079c531659141344cd1fd0a4f28419497f9722a3daafe3b4186f6b6457e090600090a35050565b634e487b7160e01b600052604160045260246000fd5b600060208083850312156200016757600080fd5b82516001600160401b03808211156200017f57600080fd5b818501915085601f8301126200019457600080fd5b815181811115620001a957620001a96200013d565b604051601f8201601f19908116603f01168101908382118183101715620001d457620001d46200013d565b816040528281528886848701011115620001ed57600080fd5b600093505b82841015620002115784840186015181850187015292850192620001f2565b600086848301015280965050505050505092915050565b600181811c908216806200023d57607f821691505b6020821081036200025e57634e487b7160e01b600052602260045260246000fd5b50919050565b601f821115620002b4576000816000526020600020601f850160051c810160208610156200028f5750805b601f850160051c820191505b81811015620002b0578281556001016200029b565b5050505b505050565b81516001600160401b03811115620002d557620002d56200013d565b620002ed81620002e6845462000228565b8462000264565b602080601f8311600181146200032557600084156200030c5750858301515b600019600386901b1c1916600185901b178555620002b0565b600085815260208120601f198616915b82811015620003565788860151825594840194600190910190840162000335565b5085821015620003755787850151600019600388901b60f8161c191681555b5050505050600190811b01905550565b61198680620003956000396000f3fe608060405234801561001057600080fd5b50600436106101825760003560e01c806356189236116100d857806395d89b411161008c578063c87b56dd11610066578063c87b56dd146102fd578063e985e9c514610310578063f2fde38b1461034c57600080fd5b806395d89b41146102cf578063a22cb465146102d7578063b88d4fde146102ea57600080fd5b806370a08231116100bd57806370a08231146102a3578063715018a6146102b65780638da5cb5b146102be57600080fd5b806356189236146102885780636352211e1461029057600080fd5b806323b872dd1161013a57806342842e0e1161011457806342842e0e1461024f5780634f6ccce71461026257806355f804b31461027557600080fd5b806323b872dd146102165780632f745c591461022957806340d097c31461023c57600080fd5b8063081812fc1161016b578063081812fc146101c4578063095ea7b3146101ef57806318160ddd1461020457600080fd5b806301ffc9a71461018757806306fdde03146101af575b600080fd5b61019a6101953660046113e1565b61035f565b60405190151581526020015b60405180910390f35b6101b7610370565b6040516101a6919061144e565b6101d76101d2366004611461565b610402565b6040516001600160a01b0390911681526020016101a6565b6102026101fd366004611496565b61042b565b005b6008545b6040519081526020016101a6565b6102026102243660046114c0565b61043a565b610208610237366004611496565b6104e3565b61020261024a3660046114fc565b610548565b61020261025d3660046114c0565b6105a2565b610208610270366004611461565b6105c2565b6102026102833660046115a3565b61061b565b600c54610208565b6101d761029e366004611461565b61062f565b6102086102b13660046114fc565b61063a565b61020261069b565b600b546001600160a01b03166101d7565b6101b76106af565b6102026102e53660046115ec565b6106be565b6102026102f8366004611628565b6106c9565b6101b761030b366004611461565b6106e0565b61019a61031e3660046116a4565b6001600160a01b03918216600090815260056020908152604080832093909416825291909152205460ff1690565b61020261035a3660046114fc565b61073e565b600061036a82610795565b92915050565b60606000805461037f906116d7565b80601f01602080910402602001604051908101604052809291908181526020018280546103ab906116d7565b80156103f85780601f106103cd576101008083540402835291602001916103f8565b820191906000526020600020905b8154815290600101906020018083116103db57829003601f168201915b5050505050905090565b600061040d826107d3565b506000828152600460205260409020546001600160a01b031661036a565b61043682823361080c565b5050565b6001600160a01b03821661046957604051633250574960e11b8152600060048201526024015b60405180910390fd5b6000610476838333610819565b9050836001600160a01b0316816001600160a01b0316146104dd576040517f64283d7b0000000000000000000000000000000000000000000000000000000081526001600160a01b0380861660048301526024820184905282166044820152606401610460565b50505050565b60006104ee8361063a565b821061051f5760405163295f44f760e21b81526001600160a01b038416600482015260248101839052604401610460565b506001600160a01b03919091166000908152600660209081526040808320938352929052205490565b61055061082e565b600c80546000918261056183611727565b9190505590506105718282610874565b6104368161057e8361088e565b60405160200161058e9190611740565b60405160208183030381529060405261092e565b6105bd838383604051806020016040528060008152506106c9565b505050565b60006105cd60085490565b82106105f65760405163295f44f760e21b81526000600482015260248101839052604401610460565b6008828154811061060957610609611769565b90600052602060002001549050919050565b61062361082e565b600d61043682826117cf565b600061036a826107d3565b60006001600160a01b03821661067f576040517f89c62b6400000000000000000000000000000000000000000000000000000000815260006004820152602401610460565b506001600160a01b031660009081526003602052604090205490565b6106a361082e565b6106ad600061097e565b565b60606001805461037f906116d7565b6104363383836109dd565b6106d484848461043a565b6104dd84848484610a95565b606060006106ec610bbe565b9050600081511161070c5760405180602001604052806000815250610737565b806107168461088e565b60405160200161072792919061188f565b6040516020818303038152906040525b9392505050565b61074661082e565b6001600160a01b038116610789576040517f1e4fbdf700000000000000000000000000000000000000000000000000000000815260006004820152602401610460565b6107928161097e565b50565b60006001600160e01b031982167f4906490600000000000000000000000000000000000000000000000000000000148061036a575061036a82610bcd565b6000818152600260205260408120546001600160a01b03168061036a57604051637e27328960e01b815260048101849052602401610460565b6105bd8383836001610c0b565b6000610826848484610d56565b949350505050565b600b546001600160a01b031633146106ad576040517f118cdaa7000000000000000000000000000000000000000000000000000000008152336004820152602401610460565b610436828260405180602001604052806000815250610e23565b6060600061089b83610e3a565b600101905060008167ffffffffffffffff8111156108bb576108bb611517565b6040519080825280601f01601f1916602001820160405280156108e5576020820181803683370190505b5090508181016020015b600019017f3031323334353637383961626364656600000000000000000000000000000000600a86061a8153600a85049450846108ef57509392505050565b6000828152600a6020526040902061094682826117cf565b506040518281527ff8e1a15aba9398e019f0b49df1a4fde98ee17ae345cb5f6b5e2c27f5033e8ce79060200160405180910390a15050565b600b80546001600160a01b0383811673ffffffffffffffffffffffffffffffffffffffff19831681179093556040519116919082907f8be0079c531659141344cd1fd0a4f28419497f9722a3daafe3b4186f6b6457e090600090a35050565b6001600160a01b038216610a28576040517f5b08ba180000000000000000000000000000000000000000000000000000000081526001600160a01b0383166004820152602401610460565b6001600160a01b03838116600081815260056020908152604080832094871680845294825291829020805460ff191686151590811790915591519182527f17307eab39ab6107e8899845ad3d59bd9653f200f220920489ca2b5937696c31910160405180910390a3505050565b6001600160a01b0383163b156104dd57604051630a85bd0160e11b81526001600160a01b0384169063150b7a0290610ad79033908890879087906004016118ce565b6020604051808303816000875af1925050508015610b12575060408051601f3d908101601f19168201909252610b0f9181019061190a565b60015b610b7b573d808015610b40576040519150601f19603f3d011682016040523d82523d6000602084013e610b45565b606091505b508051600003610b7357604051633250574960e11b81526001600160a01b0385166004820152602401610460565b805181602001fd5b6001600160e01b03198116630a85bd0160e11b14610bb757604051633250574960e11b81526001600160a01b0385166004820152602401610460565b5050505050565b6060600d805461037f906116d7565b60006001600160e01b031982167f780e9d6300000000000000000000000000000000000000000000000000000000148061036a575061036a82610f1c565b8080610c1f57506001600160a01b03821615155b15610d19576000610c2f846107d3565b90506001600160a01b03831615801590610c5b5750826001600160a01b0316816001600160a01b031614155b8015610c8d57506001600160a01b0380821660009081526005602090815260408083209387168352929052205460ff16155b15610ccf576040517fa9fbf51f0000000000000000000000000000000000000000000000000000000081526001600160a01b0384166004820152602401610460565b8115610d175783856001600160a01b0316826001600160a01b03167f8c5be1e5ebec7d5bd14f71427d1e84f3dd0314c0f7b2291e5b200ac8c7c3b92560405160405180910390a45b505b50506000908152600460205260409020805473ffffffffffffffffffffffffffffffffffffffff19166001600160a01b0392909216919091179055565b600080610d64858585610fb7565b90506001600160a01b038116610dc157610dbc84600880546000838152600960205260408120829055600182018355919091527ff3f7a9fe364faab93b216da50a3214154f22a0a2b415b23a84c8169e8b636ee30155565b610de4565b846001600160a01b0316816001600160a01b031614610de457610de481856110bd565b6001600160a01b038516610e0057610dfb8461114e565b610826565b846001600160a01b0316816001600160a01b0316146108265761082685856111fd565b610e2d838361124d565b6105bd6000848484610a95565b6000807a184f03e93ff9f4daa797ed6e38ed64bf6a1f0100000000000000008310610e83577a184f03e93ff9f4daa797ed6e38ed64bf6a1f010000000000000000830492506040015b6d04ee2d6d415b85acef81000000008310610eaf576d04ee2d6d415b85acef8100000000830492506020015b662386f26fc100008310610ecd57662386f26fc10000830492506010015b6305f5e1008310610ee5576305f5e100830492506008015b6127108310610ef957612710830492506004015b60648310610f0b576064830492506002015b600a831061036a5760010192915050565b60006001600160e01b031982167f80ac58cd000000000000000000000000000000000000000000000000000000001480610f7f57506001600160e01b031982167f5b5e139f00000000000000000000000000000000000000000000000000000000145b8061036a57507f01ffc9a7000000000000000000000000000000000000000000000000000000006001600160e01b031983161461036a565b6000828152600260205260408120546001600160a01b0390811690831615610fe457610fe48184866112cb565b6001600160a01b0381161561102257611001600085600080610c0b565b6001600160a01b038116600090815260036020526040902080546000190190555b6001600160a01b03851615611051576001600160a01b0385166000908152600360205260409020805460010190555b600084815260026020526040808220805473ffffffffffffffffffffffffffffffffffffffff19166001600160a01b0389811691821790925591518793918516917fddf252ad1be2c89b69c2b068fc378daa952ba7f163c4a11628f55a4df523b3ef91a4949350505050565b60006110c88361063a565b60008381526007602052604090205490915080821461111b576001600160a01b03841660009081526006602090815260408083208584528252808320548484528184208190558352600790915290208190555b5060009182526007602090815260408084208490556001600160a01b039094168352600681528383209183525290812055565b60085460009061116090600190611927565b6000838152600960205260408120546008805493945090928490811061118857611188611769565b9060005260206000200154905080600883815481106111a9576111a9611769565b60009182526020808320909101929092558281526009909152604080822084905585825281205560088054806111e1576111e161193a565b6001900381819060005260206000200160009055905550505050565b6000600161120a8461063a565b6112149190611927565b6001600160a01b039093166000908152600660209081526040808320868452825280832085905593825260079052919091209190915550565b6001600160a01b03821661127757604051633250574960e11b815260006004820152602401610460565b600061128583836000610819565b90506001600160a01b038116156105bd576040517f73c6ac6e00000000000000000000000000000000000000000000000000000000815260006004820152602401610460565b6112d6838383611348565b6105bd576001600160a01b03831661130457604051637e27328960e01b815260048101829052602401610460565b6040517f177e802f0000000000000000000000000000000000000000000000000000000081526001600160a01b038316600482015260248101829052604401610460565b60006001600160a01b038316158015906108265750826001600160a01b0316846001600160a01b031614806113a257506001600160a01b0380851660009081526005602090815260408083209387168352929052205460ff165b806108265750506000908152600460205260409020546001600160a01b03908116911614919050565b6001600160e01b03198116811461079257600080fd5b6000602082840312156113f357600080fd5b8135610737816113cb565b60005b83811015611419578181015183820152602001611401565b50506000910152565b6000815180845261143a8160208601602086016113fe565b601f01601f19169290920160200192915050565b6020815260006107376020830184611422565b60006020828403121561147357600080fd5b5035919050565b80356001600160a01b038116811461149157600080fd5b919050565b600080604083850312156114a957600080fd5b6114b28361147a565b946020939093013593505050565b6000806000606084860312156114d557600080fd5b6114de8461147a565b92506114ec6020850161147a565b9150604084013590509250925092565b60006020828403121561150e57600080fd5b6107378261147a565b634e487b7160e01b600052604160045260246000fd5b600067ffffffffffffffff8084111561154857611548611517565b604051601f8501601f19908116603f0116810190828211818310171561157057611570611517565b8160405280935085815286868601111561158957600080fd5b858560208301376000602087830101525050509392505050565b6000602082840312156115b557600080fd5b813567ffffffffffffffff8111156115cc57600080fd5b8201601f810184136115dd57600080fd5b6108268482356020840161152d565b600080604083850312156115ff57600080fd5b6116088361147a565b91506020830135801515811461161d57600080fd5b809150509250929050565b6000806000806080858703121561163e57600080fd5b6116478561147a565b93506116556020860161147a565b925060408501359150606085013567ffffffffffffffff81111561167857600080fd5b8501601f8101871361168957600080fd5b6116988782356020840161152d565b91505092959194509250565b600080604083850312156116b757600080fd5b6116c08361147a565b91506116ce6020840161147a565b90509250929050565b600181811c908216806116eb57607f821691505b60208210810361170b57634e487b7160e01b600052602260045260246000fd5b50919050565b634e487b7160e01b600052601160045260246000fd5b60006001820161173957611739611711565b5060010190565b600082516117528184602087016113fe565b64173539b7b760d91b920191825250600501919050565b634e487b7160e01b600052603260045260246000fd5b601f8211156105bd576000816000526020600020601f850160051c810160208610156117a85750805b601f850160051c820191505b818110156117c7578281556001016117b4565b505050505050565b815167ffffffffffffffff8111156117e9576117e9611517565b6117fd816117f784546116d7565b8461177f565b602080601f831160018114611832576000841561181a5750858301515b600019600386901b1c1916600185901b1785556117c7565b600085815260208120601f198616915b8281101561186157888601518255948401946001909101908401611842565b508582101561187f5787850151600019600388901b60f8161c191681555b5050505050600190811b01905550565b600083516118a18184602088016113fe565b8351908301906118b58183602088016113fe565b64173539b7b760d91b9101908152600501949350505050565b60006001600160a01b038087168352808616602084015250836040830152608060608301526119006080830184611422565b9695505050505050565b60006020828403121561191c57600080fd5b8151610737816113cb565b8181038181111561036a5761036a611711565b634e487b7160e01b600052603160045260246000fdfea2646970667358221220d075acf971b284dc8410b632d1796c1ad04fadf57bba663e6fe0aba62ae3add764736f6c63430008180033",
  "linkReferences": {},
  "deployedLinkReferences": {}
}